{
  "contractName": "RetailerRole",
  "abi": [
    {
      "inputs": [],
      "payable": false,
      "stateMutability": "nonpayable",
      "type": "constructor"
    },
    {
      "anonymous": false,
      "inputs": [
        {
          "indexed": true,
          "name": "account",
          "type": "address"
        }
      ],
      "name": "RetailerAdded",
      "type": "event"
    },
    {
      "anonymous": false,
      "inputs": [
        {
          "indexed": true,
          "name": "account",
          "type": "address"
        }
      ],
      "name": "RetailerRemoved",
      "type": "event"
    },
    {
      "constant": true,
      "inputs": [
        {
          "name": "account",
          "type": "address"
        }
      ],
      "name": "isRetailer",
      "outputs": [
        {
          "name": "",
          "type": "bool"
        }
      ],
      "payable": false,
      "stateMutability": "view",
      "type": "function"
    },
    {
      "constant": false,
      "inputs": [
        {
          "name": "account",
          "type": "address"
        }
      ],
      "name": "addRetailer",
      "outputs": [],
      "payable": false,
      "stateMutability": "nonpayable",
      "type": "function"
    },
    {
      "constant": false,
      "inputs": [],
      "name": "renounceRetailer",
      "outputs": [],
      "payable": false,
      "stateMutability": "nonpayable",
      "type": "function"
    }
  ],
  "bytecode": "0x608060405234801561001057600080fd5b506100293361002e640100000000026401000000009004565b6101e8565b61004f8160006100956401000000000261030a179091906401000000009004565b8073ffffffffffffffffffffffffffffffffffffffff167f71ae26cad02663e3d92efd6ec56031a80d74a20c0ab4183faa8bf262261c9baa60405160405180910390a250565b600073ffffffffffffffffffffffffffffffffffffffff168173ffffffffffffffffffffffffffffffffffffffff16141515156100d157600080fd5b6100ea8282610154640100000000026401000000009004565b1515156100f657600080fd5b60018260000160008373ffffffffffffffffffffffffffffffffffffffff1673ffffffffffffffffffffffffffffffffffffffff16815260200190815260200160002060006101000a81548160ff0219169083151502179055505050565b60008073ffffffffffffffffffffffffffffffffffffffff168273ffffffffffffffffffffffffffffffffffffffff161415151561019157600080fd5b8260000160008373ffffffffffffffffffffffffffffffffffffffff1673ffffffffffffffffffffffffffffffffffffffff16815260200190815260200160002060009054906101000a900460ff16905092915050565b610495806101f76000396000f300608060405260043610610057576000357c0100000000000000000000000000000000000000000000000000000000900463ffffffff1680635da09b881461005c5780638ec4f505146100b7578063db0e6a2f146100fa575b600080fd5b34801561006857600080fd5b5061009d600480360381019080803573ffffffffffffffffffffffffffffffffffffffff169060200190929190505050610111565b604051808215151515815260200191505060405180910390f35b3480156100c357600080fd5b506100f8600480360381019080803573ffffffffffffffffffffffffffffffffffffffff16906020019092919050505061012e565b005b34801561010657600080fd5b5061010f6101b7565b005b60006101278260006101c290919063ffffffff16565b9050919050565b61013733610111565b15156101ab576040517f08c379a000000000000000000000000000000000000000000000000000000000815260040180806020018281038252600d8152602001807f4f6e6c792052657461696c65720000000000000000000000000000000000000081525060200191505060405180910390fd5b6101b481610256565b50565b6101c0336102b0565b565b60008073ffffffffffffffffffffffffffffffffffffffff168273ffffffffffffffffffffffffffffffffffffffff16141515156101ff57600080fd5b8260000160008373ffffffffffffffffffffffffffffffffffffffff1673ffffffffffffffffffffffffffffffffffffffff16815260200190815260200160002060009054906101000a900460ff16905092915050565b61026a81600061030a90919063ffffffff16565b8073ffffffffffffffffffffffffffffffffffffffff167f71ae26cad02663e3d92efd6ec56031a80d74a20c0ab4183faa8bf262261c9baa60405160405180910390a250565b6102c48160006103ba90919063ffffffff16565b8073ffffffffffffffffffffffffffffffffffffffff167fdb7176e79cffef81cb01767dd0447a0b24bb72ca9778d4b245581086b2a7e6db60405160405180910390a250565b600073ffffffffffffffffffffffffffffffffffffffff168173ffffffffffffffffffffffffffffffffffffffff161415151561034657600080fd5b61035082826101c2565b15151561035c57600080fd5b60018260000160008373ffffffffffffffffffffffffffffffffffffffff1673ffffffffffffffffffffffffffffffffffffffff16815260200190815260200160002060006101000a81548160ff0219169083151502179055505050565b600073ffffffffffffffffffffffffffffffffffffffff168173ffffffffffffffffffffffffffffffffffffffff16141515156103f657600080fd5b61040082826101c2565b151561040b57600080fd5b60008260000160008373ffffffffffffffffffffffffffffffffffffffff1673ffffffffffffffffffffffffffffffffffffffff16815260200190815260200160002060006101000a81548160ff02191690831515021790555050505600a165627a7a7230582061925deac49a2ff8991fd587e98cc4ce08f34224c053b0b40aeaefbdfdd435170029",
  "source": "pragma solidity ^0.4.24;\n\n// Import the library 'Roles'\nimport \"./Roles.sol\";\n\n// Define a contract 'RetailerRole' to manage this role - add, remove, check\ncontract RetailerRole {\n  using Roles for Roles.Role;\n\n  // Define 2 events, one for Adding, and other for Removing\n  event RetailerAdded(address indexed account);\n  event RetailerRemoved(address indexed account);\n\n  // Define a struct 'retailers' by inheriting from 'Roles' library, struct Role\n  Roles.Role private retailers;\n\n  // In the constructor make the address that deploys this contract the 1st retailer\n  constructor() public {\n    _addRetailer(msg.sender);\n  }\n\n  // Define a modifier that checks to see if msg.sender has the appropriate role\n  modifier onlyRetailer() {\n    require(isRetailer(msg.sender), 'Only Retailer');\n    _;\n  }\n\n  // Define a function 'isRetailer' to check this role\n  function isRetailer(address account) public view returns (bool) {\n    return retailers.has(account);\n  }\n\n  // Define a function 'addRetailer' that adds this role\n  function addRetailer(address account) public onlyRetailer {\n    _addRetailer(account);\n  }\n\n  // Define a function 'renounceRetailer' to renounce this role\n  function renounceRetailer() public {\n    _removeRetailer(msg.sender);\n  }\n\n  // Define an internal function '_addRetailer' to add this role, called by 'addRetailer'\n  function _addRetailer(address account) internal {\n    retailers.add(account);\n    emit RetailerAdded(account);\n  }\n\n  // Define an internal function '_removeRetailer' to remove this role, called by 'removeRetailer'\n  function _removeRetailer(address account) internal {\n    retailers.remove(account);\n    emit RetailerRemoved(account);\n  }\n}",
  "sourcePath": "/Users/parvezhassan/Downloads/Udacity/nd1309-Project-6b-Example-Template/project-6/contracts/coffeeaccesscontrol/RetailerRole.sol",
  "compiler": {
    "name": "solc",
    "version": "0.4.24+commit.e67f0147.Emscripten.clang"
  },
  "schemaVersion": "2.0.1",
  "updatedAt": "2022-04-25T09:52:40.093Z"
}